{
  "_format": "hh-sol-artifact-1",
  "contractName": "MyUsers",
  "sourceName": "contracts/MyUsers.sol",
  "abi": [
    {
      "inputs": [],
      "stateMutability": "nonpayable",
      "type": "constructor"
    },
    {
      "anonymous": false,
      "inputs": [
        {
          "indexed": true,
          "internalType": "address",
          "name": "payee",
          "type": "address"
        },
        {
          "indexed": false,
          "internalType": "uint256",
          "name": "weiAmount",
          "type": "uint256"
        }
      ],
      "name": "Deposited",
      "type": "event"
    },
    {
      "anonymous": false,
      "inputs": [
        {
          "indexed": false,
          "internalType": "uint256",
          "name": "weiAmount",
          "type": "uint256"
        }
      ],
      "name": "JackpotCreditAdded",
      "type": "event"
    },
    {
      "anonymous": false,
      "inputs": [
        {
          "indexed": false,
          "internalType": "uint256",
          "name": "weiAmount",
          "type": "uint256"
        }
      ],
      "name": "JackpotCreditRemoved",
      "type": "event"
    },
    {
      "anonymous": false,
      "inputs": [
        {
          "indexed": true,
          "internalType": "address",
          "name": "userAddress",
          "type": "address"
        },
        {
          "indexed": false,
          "internalType": "uint256",
          "name": "weiAmount",
          "type": "uint256"
        }
      ],
      "name": "UserCreditAdded",
      "type": "event"
    },
    {
      "anonymous": false,
      "inputs": [
        {
          "indexed": true,
          "internalType": "address",
          "name": "userAddress",
          "type": "address"
        },
        {
          "indexed": false,
          "internalType": "uint256",
          "name": "weiAmount",
          "type": "uint256"
        }
      ],
      "name": "UserCreditRemoved",
      "type": "event"
    },
    {
      "anonymous": false,
      "inputs": [
        {
          "indexed": true,
          "internalType": "address",
          "name": "payee",
          "type": "address"
        },
        {
          "indexed": false,
          "internalType": "uint256",
          "name": "weiAmount",
          "type": "uint256"
        }
      ],
      "name": "Withdrawn",
      "type": "event"
    },
    {
      "inputs": [],
      "name": "getJackpotAmount",
      "outputs": [
        {
          "internalType": "uint256",
          "name": "",
          "type": "uint256"
        }
      ],
      "stateMutability": "view",
      "type": "function"
    },
    {
      "inputs": [],
      "name": "getOwner",
      "outputs": [
        {
          "internalType": "address",
          "name": "",
          "type": "address"
        }
      ],
      "stateMutability": "view",
      "type": "function"
    },
    {
      "inputs": [],
      "name": "getSender",
      "outputs": [
        {
          "internalType": "address",
          "name": "",
          "type": "address"
        }
      ],
      "stateMutability": "view",
      "type": "function"
    },
    {
      "inputs": [],
      "name": "getTotalAmount",
      "outputs": [
        {
          "internalType": "uint256",
          "name": "",
          "type": "uint256"
        }
      ],
      "stateMutability": "view",
      "type": "function"
    },
    {
      "inputs": [
        {
          "internalType": "address",
          "name": "userAddress",
          "type": "address"
        }
      ],
      "name": "getUserAmount",
      "outputs": [
        {
          "internalType": "uint256",
          "name": "",
          "type": "uint256"
        }
      ],
      "stateMutability": "view",
      "type": "function"
    },
    {
      "inputs": [
        {
          "internalType": "uint256",
          "name": "i",
          "type": "uint256"
        }
      ],
      "name": "getUserAt",
      "outputs": [
        {
          "internalType": "address",
          "name": "",
          "type": "address"
        },
        {
          "internalType": "uint256",
          "name": "",
          "type": "uint256"
        }
      ],
      "stateMutability": "view",
      "type": "function"
    },
    {
      "inputs": [],
      "name": "getUserCount",
      "outputs": [
        {
          "internalType": "uint256",
          "name": "",
          "type": "uint256"
        }
      ],
      "stateMutability": "view",
      "type": "function"
    },
    {
      "inputs": [],
      "name": "getUserDataAddress",
      "outputs": [
        {
          "internalType": "address",
          "name": "",
          "type": "address"
        }
      ],
      "stateMutability": "view",
      "type": "function"
    },
    {
      "inputs": [
        {
          "internalType": "address",
          "name": "sender",
          "type": "address"
        }
      ],
      "name": "isOwner",
      "outputs": [
        {
          "internalType": "bool",
          "name": "",
          "type": "bool"
        }
      ],
      "stateMutability": "view",
      "type": "function"
    },
    {
      "inputs": [
        {
          "internalType": "uint256",
          "name": "amount",
          "type": "uint256"
        }
      ],
      "name": "jackpotAdd",
      "outputs": [],
      "stateMutability": "nonpayable",
      "type": "function"
    },
    {
      "inputs": [
        {
          "internalType": "uint256",
          "name": "amount",
          "type": "uint256"
        }
      ],
      "name": "jackpotRemove",
      "outputs": [],
      "stateMutability": "nonpayable",
      "type": "function"
    },
    {
      "inputs": [
        {
          "internalType": "address",
          "name": "userAddress",
          "type": "address"
        }
      ],
      "name": "jackpotToUser",
      "outputs": [],
      "stateMutability": "nonpayable",
      "type": "function"
    },
    {
      "inputs": [
        {
          "internalType": "address",
          "name": "userDataAddress",
          "type": "address"
        }
      ],
      "name": "setUserData",
      "outputs": [],
      "stateMutability": "nonpayable",
      "type": "function"
    },
    {
      "inputs": [
        {
          "internalType": "address",
          "name": "userAddress",
          "type": "address"
        },
        {
          "internalType": "uint256",
          "name": "amount",
          "type": "uint256"
        }
      ],
      "name": "userAddCredit",
      "outputs": [],
      "stateMutability": "nonpayable",
      "type": "function"
    },
    {
      "inputs": [],
      "name": "userDeposit",
      "outputs": [],
      "stateMutability": "payable",
      "type": "function"
    },
    {
      "inputs": [
        {
          "internalType": "address",
          "name": "userAddress",
          "type": "address"
        },
        {
          "internalType": "uint256",
          "name": "amount",
          "type": "uint256"
        }
      ],
      "name": "userRemoveCredit",
      "outputs": [],
      "stateMutability": "nonpayable",
      "type": "function"
    },
    {
      "inputs": [],
      "name": "userWithdraw",
      "outputs": [],
      "stateMutability": "payable",
      "type": "function"
    },
    {
      "inputs": [
        {
          "internalType": "uint256",
          "name": "amount",
          "type": "uint256"
        }
      ],
      "name": "withdraw",
      "outputs": [],
      "stateMutability": "payable",
      "type": "function"
    }
  ],
  "bytecode": "0x6080604052600a6003553480156200001657600080fd5b50336000806101000a81548173ffffffffffffffffffffffffffffffffffffffff021916908373ffffffffffffffffffffffffffffffffffffffff160217905550620000c36040518060400160405280600581526020017f6f776e657200000000000000000000000000000000000000000000000000000081525060008054906101000a900473ffffffffffffffffffffffffffffffffffffffff16620000c960201b620015341760201c565b620002b5565b6200016b8282604051602401620000e2929190620001ea565b6040516020818303038152906040527f319af333000000000000000000000000000000000000000000000000000000007bffffffffffffffffffffffffffffffffffffffffffffffffffffffff19166020820180517bffffffffffffffffffffffffffffffffffffffffffffffffffffffff83818316178352505050506200016f60201b60201c565b5050565b60008151905060006a636f6e736f6c652e6c6f679050602083016000808483855afa5050505050565b620001a3816200023a565b82525050565b6000620001b6826200021e565b620001c2818562000229565b9350620001d48185602086016200026e565b620001df81620002a4565b840191505092915050565b60006040820190508181036000830152620002068185620001a9565b905062000217602083018462000198565b9392505050565b600081519050919050565b600082825260208201905092915050565b600062000247826200024e565b9050919050565b600073ffffffffffffffffffffffffffffffffffffffff82169050919050565b60005b838110156200028e57808201518184015260208101905062000271565b838111156200029e576000848401525b50505050565b6000601f19601f8301169050919050565b611dd280620002c56000396000f3fe6080604052600436106101095760003560e01c806379bd6cf911610095578063b5cb15f711610064578063b5cb15f714610308578063c6e064ad14610333578063e349885c14610371578063ed8b65561461039a578063fc7346d2146103c557610109565b806379bd6cf91461027f57806388e8ea95146102aa578063893d20e8146102d3578063a646f9ad146102fe57610109565b80633f07c057116100dc5780633f07c057146101cd57806348146113146101f657806359c642a7146102005780635e01eb5a1461022957806365ac43411461025457610109565b80630f3adbb01461010e5780632e1a7d4d146101375780632f54bf6e14610153578063327a943a14610190575b600080fd5b34801561011a57600080fd5b50610135600480360381019061013091906116fe565b6103ee565b005b610151600480360381019061014c91906117c8565b61051a565b005b34801561015f57600080fd5b5061017a600480360381019061017591906116fe565b610750565b6040516101879190611973565b60405180910390f35b34801561019c57600080fd5b506101b760048036038101906101b291906116fe565b6107a9565b6040516101c49190611a8e565b60405180910390f35b3480156101d957600080fd5b506101f460048036038101906101ef9190611727565b61085d565b005b6101fe610993565b005b34801561020c57600080fd5b50610227600480360381019061022291906117c8565b610a99565b005b34801561023557600080fd5b5061023e610b34565b60405161024b919061192f565b60405180910390f35b34801561026057600080fd5b50610269610c67565b6040516102769190611a8e565b60405180910390f35b34801561028b57600080fd5b50610294610c6f565b6040516102a1919061192f565b60405180910390f35b3480156102b657600080fd5b506102d160048036038101906102cc91906117c8565b610c99565b005b3480156102df57600080fd5b506102e8610d43565b6040516102f5919061192f565b60405180910390f35b610306610dca565b005b34801561031457600080fd5b5061031d6110ef565b60405161032a9190611a8e565b60405180910390f35b34801561033f57600080fd5b5061035a600480360381019061035591906117c8565b611196565b60405161036892919061194a565b60405180910390f35b34801561037d57600080fd5b50610398600480360381019061039391906116fe565b61124c565b005b3480156103a657600080fd5b506103af6113f4565b6040516103bc9190611a8e565b60405180910390f35b3480156103d157600080fd5b506103ec60048036038101906103e79190611727565b6113fe565b005b6103f733610750565b610436576040517f08c379a000000000000000000000000000000000000000000000000000000000815260040161042d906119ee565b60405180910390fd5b60006002541161044557600080fd5b600160009054906101000a900473ffffffffffffffffffffffffffffffffffffffff1673ffffffffffffffffffffffffffffffffffffffff1663f1af92b6826002546040518363ffffffff1660e01b81526004016104a492919061194a565b600060405180830381600087803b1580156104be57600080fd5b505af11580156104d2573d6000803e3d6000fd5b5050505060006002819055507fc03a2bf13d0cd6f9d691dce4507797f40d0b80d0f1872e9cbf4a151f6a9f579560025460405161050f9190611a8e565b60405180910390a150565b61052333610750565b610562576040517f08c379a0000000000000000000000000000000000000000000000000000000008152600401610559906119ee565b60405180910390fd5b600073ffffffffffffffffffffffffffffffffffffffff1660008054906101000a900473ffffffffffffffffffffffffffffffffffffffff1673ffffffffffffffffffffffffffffffffffffffff1614156105f2576040517f08c379a00000000000000000000000000000000000000000000000000000000081526004016105e990611a4e565b60405180910390fd5b60008111610635576040517f08c379a000000000000000000000000000000000000000000000000000000000815260040161062c90611a2e565b60405180910390fd5b80471015610678576040517f08c379a000000000000000000000000000000000000000000000000000000000815260040161066f90611a0e565b60405180910390fd5b60008054906101000a900473ffffffffffffffffffffffffffffffffffffffff1673ffffffffffffffffffffffffffffffffffffffff166108fc829081150290604051600060405180830381858888f193505050501580156106de573d6000803e3d6000fd5b5060008054906101000a900473ffffffffffffffffffffffffffffffffffffffff1673ffffffffffffffffffffffffffffffffffffffff167f7084f5476618d8e60b11ef0d7d3f06914655adb8793e28ff7f018d4c76d505d5826040516107459190611a8e565b60405180910390a250565b60008060009054906101000a900473ffffffffffffffffffffffffffffffffffffffff1673ffffffffffffffffffffffffffffffffffffffff168273ffffffffffffffffffffffffffffffffffffffff16149050919050565b6000600160009054906101000a900473ffffffffffffffffffffffffffffffffffffffff1673ffffffffffffffffffffffffffffffffffffffff1663f5a79767836040518263ffffffff1660e01b8152600401610806919061192f565b60206040518083038186803b15801561081e57600080fd5b505afa158015610832573d6000803e3d6000fd5b505050506040513d601f19601f8201168201806040525081019061085691906117f1565b9050919050565b61086633610750565b6108a5576040517f08c379a000000000000000000000000000000000000000000000000000000000815260040161089c906119ee565b60405180910390fd5b600081116108b257600080fd5b600160009054906101000a900473ffffffffffffffffffffffffffffffffffffffff1673ffffffffffffffffffffffffffffffffffffffff166325b2e92483836040518363ffffffff1660e01b815260040161090f92919061194a565b600060405180830381600087803b15801561092957600080fd5b505af115801561093d573d6000803e3d6000fd5b505050508173ffffffffffffffffffffffffffffffffffffffff167f9d3b473460e19dcff0daac524ebba3a860f48b0a5f780f4cdaa80c7ace09108f826040516109879190611a8e565b60405180910390a25050565b600034116109a057600080fd5b600160009054906101000a900473ffffffffffffffffffffffffffffffffffffffff1673ffffffffffffffffffffffffffffffffffffffff1663f1af92b633600354346109ed9190611b1b565b6040518363ffffffff1660e01b8152600401610a0a92919061194a565b600060405180830381600087803b158015610a2457600080fd5b505af1158015610a38573d6000803e3d6000fd5b505050503373ffffffffffffffffffffffffffffffffffffffff167f2e452898bcc0721ff6b7881d70f4822cd6222276968c0a8ee1e59e9996843df360035434610a829190611b1b565b604051610a8f9190611a8e565b60405180910390a2565b610aa233610750565b610ae1576040517f08c379a0000000000000000000000000000000000000000000000000000000008152600401610ad8906119ee565b60405180910390fd5b8060026000828254610af39190611ac5565b925050819055507f5555d05537ef222f4346b919a9f466e877918bd853d3d96cdacd0d244ce4c4a781604051610b299190611a8e565b60405180910390a150565b6000610b756040518060400160405280600a81526020017f6d73672e73656e6465720000000000000000000000000000000000000000000081525033611534565b610bd46040518060400160405280600581526020017f6f776e657200000000000000000000000000000000000000000000000000000081525060008054906101000a900473ffffffffffffffffffffffffffffffffffffffff16611534565b610c616040518060400160405280600781526020017f657175616c733f0000000000000000000000000000000000000000000000000081525060008054906101000a900473ffffffffffffffffffffffffffffffffffffffff1673ffffffffffffffffffffffffffffffffffffffff163373ffffffffffffffffffffffffffffffffffffffff16146115d0565b33905090565b600047905090565b6000600160009054906101000a900473ffffffffffffffffffffffffffffffffffffffff16905090565b610ca233610750565b610ce1576040517f08c379a0000000000000000000000000000000000000000000000000000000008152600401610cd8906119ee565b60405180910390fd5b806002541015610cf057600080fd5b8060026000828254610d029190611b75565b925050819055507fc03a2bf13d0cd6f9d691dce4507797f40d0b80d0f1872e9cbf4a151f6a9f579581604051610d389190611a8e565b60405180910390a150565b6000610da46040518060400160405280600581526020017f6f776e657200000000000000000000000000000000000000000000000000000081525060008054906101000a900473ffffffffffffffffffffffffffffffffffffffff16611534565b60008054906101000a900473ffffffffffffffffffffffffffffffffffffffff16905090565b600073ffffffffffffffffffffffffffffffffffffffff163373ffffffffffffffffffffffffffffffffffffffff161415610e3a576040517f08c379a0000000000000000000000000000000000000000000000000000000008152600401610e3190611a4e565b60405180910390fd5b600160009054906101000a900473ffffffffffffffffffffffffffffffffffffffff1673ffffffffffffffffffffffffffffffffffffffff1663f6a3d24e336040518263ffffffff1660e01b8152600401610e95919061192f565b60206040518083038186803b158015610ead57600080fd5b505afa158015610ec1573d6000803e3d6000fd5b505050506040513d601f19601f82011682018060405250810190610ee5919061179f565b610eee57600080fd5b6000600160009054906101000a900473ffffffffffffffffffffffffffffffffffffffff1673ffffffffffffffffffffffffffffffffffffffff1663f5a79767336040518263ffffffff1660e01b8152600401610f4b919061192f565b60206040518083038186803b158015610f6357600080fd5b505afa158015610f77573d6000803e3d6000fd5b505050506040513d601f19601f82011682018060405250810190610f9b91906117f1565b905060008111610faa57600080fd5b600160009054906101000a900473ffffffffffffffffffffffffffffffffffffffff1673ffffffffffffffffffffffffffffffffffffffff166363de1f2c336040518263ffffffff1660e01b8152600401611005919061192f565b600060405180830381600087803b15801561101f57600080fd5b505af1158015611033573d6000803e3d6000fd5b5050505060008054906101000a900473ffffffffffffffffffffffffffffffffffffffff1673ffffffffffffffffffffffffffffffffffffffff166108fc829081150290604051600060405180830381858888f1935050505015801561109d573d6000803e3d6000fd5b503373ffffffffffffffffffffffffffffffffffffffff167f7084f5476618d8e60b11ef0d7d3f06914655adb8793e28ff7f018d4c76d505d5826040516110e49190611a8e565b60405180910390a250565b6000600160009054906101000a900473ffffffffffffffffffffffffffffffffffffffff1673ffffffffffffffffffffffffffffffffffffffff1663a87d942c6040518163ffffffff1660e01b815260040160206040518083038186803b15801561115957600080fd5b505afa15801561116d573d6000803e3d6000fd5b505050506040513d601f19601f8201168201806040525081019061119191906117f1565b905090565b600080600160009054906101000a900473ffffffffffffffffffffffffffffffffffffffff1673ffffffffffffffffffffffffffffffffffffffff1663303eaeed846040518263ffffffff1660e01b81526004016111f49190611a8e565b604080518083038186803b15801561120b57600080fd5b505afa15801561121f573d6000803e3d6000fd5b505050506040513d601f19601f820116820180604052508101906112439190611763565b91509150915091565b61125533610750565b611294576040517f08c379a000000000000000000000000000000000000000000000000000000000815260040161128b906119ee565b60405180910390fd5b600073ffffffffffffffffffffffffffffffffffffffff168173ffffffffffffffffffffffffffffffffffffffff161415611304576040517f08c379a00000000000000000000000000000000000000000000000000000000081526004016112fb90611a6e565b60405180910390fd5b80600160006101000a81548173ffffffffffffffffffffffffffffffffffffffff021916908373ffffffffffffffffffffffffffffffffffffffff1602179055506000600160009054906101000a900473ffffffffffffffffffffffffffffffffffffffff1673ffffffffffffffffffffffffffffffffffffffff1663a87d942c6040518163ffffffff1660e01b815260040160206040518083038186803b1580156113af57600080fd5b505afa1580156113c3573d6000803e3d6000fd5b505050506040513d601f19601f820116820180604052508101906113e791906117f1565b146113f157600080fd5b50565b6000600254905090565b61140733610750565b611446576040517f08c379a000000000000000000000000000000000000000000000000000000000815260040161143d906119ee565b60405180910390fd5b6000811161145357600080fd5b600160009054906101000a900473ffffffffffffffffffffffffffffffffffffffff1673ffffffffffffffffffffffffffffffffffffffff1663f1af92b683836040518363ffffffff1660e01b81526004016114b092919061194a565b600060405180830381600087803b1580156114ca57600080fd5b505af11580156114de573d6000803e3d6000fd5b505050508173ffffffffffffffffffffffffffffffffffffffff167f2e452898bcc0721ff6b7881d70f4822cd6222276968c0a8ee1e59e9996843df3826040516115289190611a8e565b60405180910390a25050565b6115cc828260405160240161154a92919061198e565b6040516020818303038152906040527f319af333000000000000000000000000000000000000000000000000000000007bffffffffffffffffffffffffffffffffffffffffffffffffffffffff19166020820180517bffffffffffffffffffffffffffffffffffffffffffffffffffffffff838183161783525050505061166c565b5050565b61166882826040516024016115e69291906119be565b6040516020818303038152906040527fc3b55635000000000000000000000000000000000000000000000000000000007bffffffffffffffffffffffffffffffffffffffffffffffffffffffff19166020820180517bffffffffffffffffffffffffffffffffffffffffffffffffffffffff838183161783525050505061166c565b5050565b60008151905060006a636f6e736f6c652e6c6f679050602083016000808483855afa5050505050565b6000813590506116a481611d57565b92915050565b6000815190506116b981611d57565b92915050565b6000815190506116ce81611d6e565b92915050565b6000813590506116e381611d85565b92915050565b6000815190506116f881611d85565b92915050565b60006020828403121561171057600080fd5b600061171e84828501611695565b91505092915050565b6000806040838503121561173a57600080fd5b600061174885828601611695565b9250506020611759858286016116d4565b9150509250929050565b6000806040838503121561177657600080fd5b6000611784858286016116aa565b9250506020611795858286016116e9565b9150509250929050565b6000602082840312156117b157600080fd5b60006117bf848285016116bf565b91505092915050565b6000602082840312156117da57600080fd5b60006117e8848285016116d4565b91505092915050565b60006020828403121561180357600080fd5b6000611811848285016116e9565b91505092915050565b61182381611ba9565b82525050565b61183281611bbb565b82525050565b600061184382611aa9565b61184d8185611ab4565b935061185d818560208601611bf1565b61186681611c53565b840191505092915050565b600061187e601683611ab4565b915061188982611c64565b602082019050919050565b60006118a1602883611ab4565b91506118ac82611c8d565b604082019050919050565b60006118c4601c83611ab4565b91506118cf82611cdc565b602082019050919050565b60006118e7600f83611ab4565b91506118f282611d05565b602082019050919050565b600061190a601a83611ab4565b915061191582611d2e565b602082019050919050565b61192981611be7565b82525050565b6000602082019050611944600083018461181a565b92915050565b600060408201905061195f600083018561181a565b61196c6020830184611920565b9392505050565b60006020820190506119886000830184611829565b92915050565b600060408201905081810360008301526119a88185611838565b90506119b7602083018461181a565b9392505050565b600060408201905081810360008301526119d88185611838565b90506119e76020830184611829565b9392505050565b60006020820190508181036000830152611a0781611871565b9050919050565b60006020820190508181036000830152611a2781611894565b9050919050565b60006020820190508181036000830152611a47816118b7565b9050919050565b60006020820190508181036000830152611a67816118da565b9050919050565b60006020820190508181036000830152611a87816118fd565b9050919050565b6000602082019050611aa36000830184611920565b92915050565b600081519050919050565b600082825260208201905092915050565b6000611ad082611be7565b9150611adb83611be7565b9250827fffffffffffffffffffffffffffffffffffffffffffffffffffffffffffffffff03821115611b1057611b0f611c24565b5b828201905092915050565b6000611b2682611be7565b9150611b3183611be7565b9250817fffffffffffffffffffffffffffffffffffffffffffffffffffffffffffffffff0483118215151615611b6a57611b69611c24565b5b828202905092915050565b6000611b8082611be7565b9150611b8b83611be7565b925082821015611b9e57611b9d611c24565b5b828203905092915050565b6000611bb482611bc7565b9050919050565b60008115159050919050565b600073ffffffffffffffffffffffffffffffffffffffff82169050919050565b6000819050919050565b60005b83811015611c0f578082015181840152602081019050611bf4565b83811115611c1e576000848401525b50505050565b7f4e487b7100000000000000000000000000000000000000000000000000000000600052601160045260246000fd5b6000601f19601f8301169050919050565b7f53656e6465722073686f756c64206265206f776e657200000000000000000000600082015250565b7f416d6f756e74206d757374206265206d6f7265207175616c206164647265737360008201527f2062616c616e6365000000000000000000000000000000000000000000000000602082015250565b7f416d6f756e74206d757374206265206d6f65207468616e207a65726f00000000600082015250565b7f4e6f207a65726f20616464726573730000000000000000000000000000000000600082015250565b7f416464726573732073686f756c64206e6f74206265207a65726f000000000000600082015250565b611d6081611ba9565b8114611d6b57600080fd5b50565b611d7781611bbb565b8114611d8257600080fd5b50565b611d8e81611be7565b8114611d9957600080fd5b5056fea26469706673582212203de516b3f5d88acf03c6a1dae2a925d11663de9b5a8ae1cf7dbbf0adcc57767d64736f6c63430008040033",
  "linkReferences": {},
  "deployedLinkReferences": {}
}