{
  "_format": "hh-sol-artifact-1",
  "contractName": "MyUsers",
  "sourceName": "contracts/MyUsers.sol",
  "abi": [
    {
      "inputs": [],
      "stateMutability": "nonpayable",
      "type": "constructor"
    },
    {
      "anonymous": false,
      "inputs": [
        {
          "indexed": true,
          "internalType": "address",
          "name": "payee",
          "type": "address"
        },
        {
          "indexed": false,
          "internalType": "uint256",
          "name": "weiAmount",
          "type": "uint256"
        }
      ],
      "name": "Deposited",
      "type": "event"
    },
    {
      "anonymous": false,
      "inputs": [
        {
          "indexed": false,
          "internalType": "uint256",
          "name": "weiAmount",
          "type": "uint256"
        }
      ],
      "name": "JackpotCreditAdded",
      "type": "event"
    },
    {
      "anonymous": false,
      "inputs": [
        {
          "indexed": false,
          "internalType": "uint256",
          "name": "weiAmount",
          "type": "uint256"
        }
      ],
      "name": "JackpotCreditRemoved",
      "type": "event"
    },
    {
      "anonymous": false,
      "inputs": [
        {
          "indexed": true,
          "internalType": "address",
          "name": "userAddress",
          "type": "address"
        },
        {
          "indexed": false,
          "internalType": "uint256",
          "name": "weiAmount",
          "type": "uint256"
        }
      ],
      "name": "UserCreditAdded",
      "type": "event"
    },
    {
      "anonymous": false,
      "inputs": [
        {
          "indexed": true,
          "internalType": "address",
          "name": "userAddress",
          "type": "address"
        },
        {
          "indexed": false,
          "internalType": "uint256",
          "name": "weiAmount",
          "type": "uint256"
        }
      ],
      "name": "UserCreditRemoved",
      "type": "event"
    },
    {
      "anonymous": false,
      "inputs": [
        {
          "indexed": true,
          "internalType": "address",
          "name": "payee",
          "type": "address"
        },
        {
          "indexed": false,
          "internalType": "uint256",
          "name": "weiAmount",
          "type": "uint256"
        }
      ],
      "name": "Withdrawn",
      "type": "event"
    },
    {
      "inputs": [],
      "name": "getJackpotAmount",
      "outputs": [
        {
          "internalType": "uint256",
          "name": "",
          "type": "uint256"
        }
      ],
      "stateMutability": "view",
      "type": "function"
    },
    {
      "inputs": [],
      "name": "getOwner",
      "outputs": [
        {
          "internalType": "address",
          "name": "",
          "type": "address"
        }
      ],
      "stateMutability": "view",
      "type": "function"
    },
    {
      "inputs": [],
      "name": "getSender",
      "outputs": [
        {
          "internalType": "address",
          "name": "",
          "type": "address"
        }
      ],
      "stateMutability": "view",
      "type": "function"
    },
    {
      "inputs": [],
      "name": "getTotalAmount",
      "outputs": [
        {
          "internalType": "uint256",
          "name": "",
          "type": "uint256"
        }
      ],
      "stateMutability": "view",
      "type": "function"
    },
    {
      "inputs": [
        {
          "internalType": "address",
          "name": "userAddress",
          "type": "address"
        }
      ],
      "name": "getUserAmount",
      "outputs": [
        {
          "internalType": "uint256",
          "name": "",
          "type": "uint256"
        }
      ],
      "stateMutability": "view",
      "type": "function"
    },
    {
      "inputs": [
        {
          "internalType": "uint256",
          "name": "i",
          "type": "uint256"
        }
      ],
      "name": "getUserAt",
      "outputs": [
        {
          "internalType": "address",
          "name": "",
          "type": "address"
        },
        {
          "internalType": "uint256",
          "name": "",
          "type": "uint256"
        }
      ],
      "stateMutability": "view",
      "type": "function"
    },
    {
      "inputs": [],
      "name": "getUserCount",
      "outputs": [
        {
          "internalType": "uint256",
          "name": "",
          "type": "uint256"
        }
      ],
      "stateMutability": "view",
      "type": "function"
    },
    {
      "inputs": [],
      "name": "getUserDataAddress",
      "outputs": [
        {
          "internalType": "address",
          "name": "",
          "type": "address"
        }
      ],
      "stateMutability": "view",
      "type": "function"
    },
    {
      "inputs": [
        {
          "internalType": "address",
          "name": "sender",
          "type": "address"
        }
      ],
      "name": "isOwner",
      "outputs": [
        {
          "internalType": "bool",
          "name": "",
          "type": "bool"
        }
      ],
      "stateMutability": "view",
      "type": "function"
    },
    {
      "inputs": [
        {
          "internalType": "uint256",
          "name": "amount",
          "type": "uint256"
        }
      ],
      "name": "jackpotAdd",
      "outputs": [],
      "stateMutability": "nonpayable",
      "type": "function"
    },
    {
      "inputs": [
        {
          "internalType": "uint256",
          "name": "amount",
          "type": "uint256"
        }
      ],
      "name": "jackpotRemove",
      "outputs": [],
      "stateMutability": "nonpayable",
      "type": "function"
    },
    {
      "inputs": [
        {
          "internalType": "address",
          "name": "userAddress",
          "type": "address"
        }
      ],
      "name": "jackpotToUser",
      "outputs": [],
      "stateMutability": "nonpayable",
      "type": "function"
    },
    {
      "inputs": [
        {
          "internalType": "address",
          "name": "userDataAddress",
          "type": "address"
        }
      ],
      "name": "setUserData",
      "outputs": [],
      "stateMutability": "nonpayable",
      "type": "function"
    },
    {
      "inputs": [
        {
          "internalType": "address",
          "name": "userAddress",
          "type": "address"
        },
        {
          "internalType": "uint256",
          "name": "amount",
          "type": "uint256"
        }
      ],
      "name": "userAddCredit",
      "outputs": [],
      "stateMutability": "nonpayable",
      "type": "function"
    },
    {
      "inputs": [],
      "name": "userDeposit",
      "outputs": [],
      "stateMutability": "payable",
      "type": "function"
    },
    {
      "inputs": [
        {
          "internalType": "address",
          "name": "userAddress",
          "type": "address"
        },
        {
          "internalType": "uint256",
          "name": "amount",
          "type": "uint256"
        }
      ],
      "name": "userRemoveCredit",
      "outputs": [],
      "stateMutability": "nonpayable",
      "type": "function"
    },
    {
      "inputs": [],
      "name": "userWithdraw",
      "outputs": [],
      "stateMutability": "payable",
      "type": "function"
    },
    {
      "inputs": [
        {
          "internalType": "uint256",
          "name": "amount",
          "type": "uint256"
        }
      ],
      "name": "withdraw",
      "outputs": [],
      "stateMutability": "payable",
      "type": "function"
    }
  ],
  "bytecode": "0x6080604052600a6003553480156200001657600080fd5b50336000806101000a81548173ffffffffffffffffffffffffffffffffffffffff021916908373ffffffffffffffffffffffffffffffffffffffff160217905550620000c36040518060400160405280600581526020017f6f776e657200000000000000000000000000000000000000000000000000000081525060008054906101000a900473ffffffffffffffffffffffffffffffffffffffff16620000c960201b620014d91760201c565b620002b5565b6200016b8282604051602401620000e2929190620001ea565b6040516020818303038152906040527f319af333000000000000000000000000000000000000000000000000000000007bffffffffffffffffffffffffffffffffffffffffffffffffffffffff19166020820180517bffffffffffffffffffffffffffffffffffffffffffffffffffffffff83818316178352505050506200016f60201b60201c565b5050565b60008151905060006a636f6e736f6c652e6c6f679050602083016000808483855afa5050505050565b620001a3816200023a565b82525050565b6000620001b6826200021e565b620001c2818562000229565b9350620001d48185602086016200026e565b620001df81620002a4565b840191505092915050565b60006040820190508181036000830152620002068185620001a9565b905062000217602083018462000198565b9392505050565b600081519050919050565b600082825260208201905092915050565b600062000247826200024e565b9050919050565b600073ffffffffffffffffffffffffffffffffffffffff82169050919050565b60005b838110156200028e57808201518184015260208101905062000271565b838111156200029e576000848401525b50505050565b6000601f19601f8301169050919050565b611d7780620002c56000396000f3fe6080604052600436106101095760003560e01c806379bd6cf911610095578063b5cb15f711610064578063b5cb15f714610308578063c6e064ad14610333578063e349885c14610371578063ed8b65561461039a578063fc7346d2146103c557610109565b806379bd6cf91461027f57806388e8ea95146102aa578063893d20e8146102d3578063a646f9ad146102fe57610109565b80633f07c057116100dc5780633f07c057146101cd57806348146113146101f657806359c642a7146102005780635e01eb5a1461022957806365ac43411461025457610109565b80630f3adbb01461010e5780632e1a7d4d146101375780632f54bf6e14610153578063327a943a14610190575b600080fd5b34801561011a57600080fd5b50610135600480360381019061013091906116a3565b6103ee565b005b610151600480360381019061014c919061176d565b61051a565b005b34801561015f57600080fd5b5061017a600480360381019061017591906116a3565b610750565b6040516101879190611918565b60405180910390f35b34801561019c57600080fd5b506101b760048036038101906101b291906116a3565b6107a9565b6040516101c49190611a33565b60405180910390f35b3480156101d957600080fd5b506101f460048036038101906101ef91906116cc565b61085d565b005b6101fe610993565b005b34801561020c57600080fd5b506102276004803603810190610222919061176d565b610a3e565b005b34801561023557600080fd5b5061023e610ad9565b60405161024b91906118d4565b60405180910390f35b34801561026057600080fd5b50610269610c0c565b6040516102769190611a33565b60405180910390f35b34801561028b57600080fd5b50610294610c14565b6040516102a191906118d4565b60405180910390f35b3480156102b657600080fd5b506102d160048036038101906102cc919061176d565b610c3e565b005b3480156102df57600080fd5b506102e8610ce8565b6040516102f591906118d4565b60405180910390f35b610306610d6f565b005b34801561031457600080fd5b5061031d611094565b60405161032a9190611a33565b60405180910390f35b34801561033f57600080fd5b5061035a6004803603810190610355919061176d565b61113b565b6040516103689291906118ef565b60405180910390f35b34801561037d57600080fd5b50610398600480360381019061039391906116a3565b6111f1565b005b3480156103a657600080fd5b506103af611399565b6040516103bc9190611a33565b60405180910390f35b3480156103d157600080fd5b506103ec60048036038101906103e791906116cc565b6113a3565b005b6103f733610750565b610436576040517f08c379a000000000000000000000000000000000000000000000000000000000815260040161042d90611993565b60405180910390fd5b60006002541161044557600080fd5b600160009054906101000a900473ffffffffffffffffffffffffffffffffffffffff1673ffffffffffffffffffffffffffffffffffffffff1663f1af92b6826002546040518363ffffffff1660e01b81526004016104a49291906118ef565b600060405180830381600087803b1580156104be57600080fd5b505af11580156104d2573d6000803e3d6000fd5b5050505060006002819055507fc03a2bf13d0cd6f9d691dce4507797f40d0b80d0f1872e9cbf4a151f6a9f579560025460405161050f9190611a33565b60405180910390a150565b61052333610750565b610562576040517f08c379a000000000000000000000000000000000000000000000000000000000815260040161055990611993565b60405180910390fd5b600073ffffffffffffffffffffffffffffffffffffffff1660008054906101000a900473ffffffffffffffffffffffffffffffffffffffff1673ffffffffffffffffffffffffffffffffffffffff1614156105f2576040517f08c379a00000000000000000000000000000000000000000000000000000000081526004016105e9906119f3565b60405180910390fd5b60008111610635576040517f08c379a000000000000000000000000000000000000000000000000000000000815260040161062c906119d3565b60405180910390fd5b80471015610678576040517f08c379a000000000000000000000000000000000000000000000000000000000815260040161066f906119b3565b60405180910390fd5b60008054906101000a900473ffffffffffffffffffffffffffffffffffffffff1673ffffffffffffffffffffffffffffffffffffffff166108fc829081150290604051600060405180830381858888f193505050501580156106de573d6000803e3d6000fd5b5060008054906101000a900473ffffffffffffffffffffffffffffffffffffffff1673ffffffffffffffffffffffffffffffffffffffff167f7084f5476618d8e60b11ef0d7d3f06914655adb8793e28ff7f018d4c76d505d5826040516107459190611a33565b60405180910390a250565b60008060009054906101000a900473ffffffffffffffffffffffffffffffffffffffff1673ffffffffffffffffffffffffffffffffffffffff168273ffffffffffffffffffffffffffffffffffffffff16149050919050565b6000600160009054906101000a900473ffffffffffffffffffffffffffffffffffffffff1673ffffffffffffffffffffffffffffffffffffffff1663f5a79767836040518263ffffffff1660e01b815260040161080691906118d4565b60206040518083038186803b15801561081e57600080fd5b505afa158015610832573d6000803e3d6000fd5b505050506040513d601f19601f820116820180604052508101906108569190611796565b9050919050565b61086633610750565b6108a5576040517f08c379a000000000000000000000000000000000000000000000000000000000815260040161089c90611993565b60405180910390fd5b600081116108b257600080fd5b600160009054906101000a900473ffffffffffffffffffffffffffffffffffffffff1673ffffffffffffffffffffffffffffffffffffffff166325b2e92483836040518363ffffffff1660e01b815260040161090f9291906118ef565b600060405180830381600087803b15801561092957600080fd5b505af115801561093d573d6000803e3d6000fd5b505050508173ffffffffffffffffffffffffffffffffffffffff167f9d3b473460e19dcff0daac524ebba3a860f48b0a5f780f4cdaa80c7ace09108f826040516109879190611a33565b60405180910390a25050565b600034116109a057600080fd5b600160009054906101000a900473ffffffffffffffffffffffffffffffffffffffff1673ffffffffffffffffffffffffffffffffffffffff1663f1af92b633600354346109ed9190611ac0565b6040518363ffffffff1660e01b8152600401610a0a9291906118ef565b600060405180830381600087803b158015610a2457600080fd5b505af1158015610a38573d6000803e3d6000fd5b50505050565b610a4733610750565b610a86576040517f08c379a0000000000000000000000000000000000000000000000000000000008152600401610a7d90611993565b60405180910390fd5b8060026000828254610a989190611a6a565b925050819055507f5555d05537ef222f4346b919a9f466e877918bd853d3d96cdacd0d244ce4c4a781604051610ace9190611a33565b60405180910390a150565b6000610b1a6040518060400160405280600a81526020017f6d73672e73656e64657200000000000000000000000000000000000000000000815250336114d9565b610b796040518060400160405280600581526020017f6f776e657200000000000000000000000000000000000000000000000000000081525060008054906101000a900473ffffffffffffffffffffffffffffffffffffffff166114d9565b610c066040518060400160405280600781526020017f657175616c733f0000000000000000000000000000000000000000000000000081525060008054906101000a900473ffffffffffffffffffffffffffffffffffffffff1673ffffffffffffffffffffffffffffffffffffffff163373ffffffffffffffffffffffffffffffffffffffff1614611575565b33905090565b600047905090565b6000600160009054906101000a900473ffffffffffffffffffffffffffffffffffffffff16905090565b610c4733610750565b610c86576040517f08c379a0000000000000000000000000000000000000000000000000000000008152600401610c7d90611993565b60405180910390fd5b806002541015610c9557600080fd5b8060026000828254610ca79190611b1a565b925050819055507fc03a2bf13d0cd6f9d691dce4507797f40d0b80d0f1872e9cbf4a151f6a9f579581604051610cdd9190611a33565b60405180910390a150565b6000610d496040518060400160405280600581526020017f6f776e657200000000000000000000000000000000000000000000000000000081525060008054906101000a900473ffffffffffffffffffffffffffffffffffffffff166114d9565b60008054906101000a900473ffffffffffffffffffffffffffffffffffffffff16905090565b600073ffffffffffffffffffffffffffffffffffffffff163373ffffffffffffffffffffffffffffffffffffffff161415610ddf576040517f08c379a0000000000000000000000000000000000000000000000000000000008152600401610dd6906119f3565b60405180910390fd5b600160009054906101000a900473ffffffffffffffffffffffffffffffffffffffff1673ffffffffffffffffffffffffffffffffffffffff1663f6a3d24e336040518263ffffffff1660e01b8152600401610e3a91906118d4565b60206040518083038186803b158015610e5257600080fd5b505afa158015610e66573d6000803e3d6000fd5b505050506040513d601f19601f82011682018060405250810190610e8a9190611744565b610e9357600080fd5b6000600160009054906101000a900473ffffffffffffffffffffffffffffffffffffffff1673ffffffffffffffffffffffffffffffffffffffff1663f5a79767336040518263ffffffff1660e01b8152600401610ef091906118d4565b60206040518083038186803b158015610f0857600080fd5b505afa158015610f1c573d6000803e3d6000fd5b505050506040513d601f19601f82011682018060405250810190610f409190611796565b905060008111610f4f57600080fd5b600160009054906101000a900473ffffffffffffffffffffffffffffffffffffffff1673ffffffffffffffffffffffffffffffffffffffff166363de1f2c336040518263ffffffff1660e01b8152600401610faa91906118d4565b600060405180830381600087803b158015610fc457600080fd5b505af1158015610fd8573d6000803e3d6000fd5b5050505060008054906101000a900473ffffffffffffffffffffffffffffffffffffffff1673ffffffffffffffffffffffffffffffffffffffff166108fc829081150290604051600060405180830381858888f19350505050158015611042573d6000803e3d6000fd5b503373ffffffffffffffffffffffffffffffffffffffff167f7084f5476618d8e60b11ef0d7d3f06914655adb8793e28ff7f018d4c76d505d5826040516110899190611a33565b60405180910390a250565b6000600160009054906101000a900473ffffffffffffffffffffffffffffffffffffffff1673ffffffffffffffffffffffffffffffffffffffff1663a87d942c6040518163ffffffff1660e01b815260040160206040518083038186803b1580156110fe57600080fd5b505afa158015611112573d6000803e3d6000fd5b505050506040513d601f19601f820116820180604052508101906111369190611796565b905090565b600080600160009054906101000a900473ffffffffffffffffffffffffffffffffffffffff1673ffffffffffffffffffffffffffffffffffffffff1663303eaeed846040518263ffffffff1660e01b81526004016111999190611a33565b604080518083038186803b1580156111b057600080fd5b505afa1580156111c4573d6000803e3d6000fd5b505050506040513d601f19601f820116820180604052508101906111e89190611708565b91509150915091565b6111fa33610750565b611239576040517f08c379a000000000000000000000000000000000000000000000000000000000815260040161123090611993565b60405180910390fd5b600073ffffffffffffffffffffffffffffffffffffffff168173ffffffffffffffffffffffffffffffffffffffff1614156112a9576040517f08c379a00000000000000000000000000000000000000000000000000000000081526004016112a090611a13565b60405180910390fd5b80600160006101000a81548173ffffffffffffffffffffffffffffffffffffffff021916908373ffffffffffffffffffffffffffffffffffffffff1602179055506000600160009054906101000a900473ffffffffffffffffffffffffffffffffffffffff1673ffffffffffffffffffffffffffffffffffffffff1663a87d942c6040518163ffffffff1660e01b815260040160206040518083038186803b15801561135457600080fd5b505afa158015611368573d6000803e3d6000fd5b505050506040513d601f19601f8201168201806040525081019061138c9190611796565b1461139657600080fd5b50565b6000600254905090565b6113ac33610750565b6113eb576040517f08c379a00000000000000000000000000000000000000000000000000000000081526004016113e290611993565b60405180910390fd5b600081116113f857600080fd5b600160009054906101000a900473ffffffffffffffffffffffffffffffffffffffff1673ffffffffffffffffffffffffffffffffffffffff1663f1af92b683836040518363ffffffff1660e01b81526004016114559291906118ef565b600060405180830381600087803b15801561146f57600080fd5b505af1158015611483573d6000803e3d6000fd5b505050508173ffffffffffffffffffffffffffffffffffffffff167f2e452898bcc0721ff6b7881d70f4822cd6222276968c0a8ee1e59e9996843df3826040516114cd9190611a33565b60405180910390a25050565b61157182826040516024016114ef929190611933565b6040516020818303038152906040527f319af333000000000000000000000000000000000000000000000000000000007bffffffffffffffffffffffffffffffffffffffffffffffffffffffff19166020820180517bffffffffffffffffffffffffffffffffffffffffffffffffffffffff8381831617835250505050611611565b5050565b61160d828260405160240161158b929190611963565b6040516020818303038152906040527fc3b55635000000000000000000000000000000000000000000000000000000007bffffffffffffffffffffffffffffffffffffffffffffffffffffffff19166020820180517bffffffffffffffffffffffffffffffffffffffffffffffffffffffff8381831617835250505050611611565b5050565b60008151905060006a636f6e736f6c652e6c6f679050602083016000808483855afa5050505050565b60008135905061164981611cfc565b92915050565b60008151905061165e81611cfc565b92915050565b60008151905061167381611d13565b92915050565b60008135905061168881611d2a565b92915050565b60008151905061169d81611d2a565b92915050565b6000602082840312156116b557600080fd5b60006116c38482850161163a565b91505092915050565b600080604083850312156116df57600080fd5b60006116ed8582860161163a565b92505060206116fe85828601611679565b9150509250929050565b6000806040838503121561171b57600080fd5b60006117298582860161164f565b925050602061173a8582860161168e565b9150509250929050565b60006020828403121561175657600080fd5b600061176484828501611664565b91505092915050565b60006020828403121561177f57600080fd5b600061178d84828501611679565b91505092915050565b6000602082840312156117a857600080fd5b60006117b68482850161168e565b91505092915050565b6117c881611b4e565b82525050565b6117d781611b60565b82525050565b60006117e882611a4e565b6117f28185611a59565b9350611802818560208601611b96565b61180b81611bf8565b840191505092915050565b6000611823601683611a59565b915061182e82611c09565b602082019050919050565b6000611846602883611a59565b915061185182611c32565b604082019050919050565b6000611869601c83611a59565b915061187482611c81565b602082019050919050565b600061188c600f83611a59565b915061189782611caa565b602082019050919050565b60006118af601a83611a59565b91506118ba82611cd3565b602082019050919050565b6118ce81611b8c565b82525050565b60006020820190506118e960008301846117bf565b92915050565b600060408201905061190460008301856117bf565b61191160208301846118c5565b9392505050565b600060208201905061192d60008301846117ce565b92915050565b6000604082019050818103600083015261194d81856117dd565b905061195c60208301846117bf565b9392505050565b6000604082019050818103600083015261197d81856117dd565b905061198c60208301846117ce565b9392505050565b600060208201905081810360008301526119ac81611816565b9050919050565b600060208201905081810360008301526119cc81611839565b9050919050565b600060208201905081810360008301526119ec8161185c565b9050919050565b60006020820190508181036000830152611a0c8161187f565b9050919050565b60006020820190508181036000830152611a2c816118a2565b9050919050565b6000602082019050611a4860008301846118c5565b92915050565b600081519050919050565b600082825260208201905092915050565b6000611a7582611b8c565b9150611a8083611b8c565b9250827fffffffffffffffffffffffffffffffffffffffffffffffffffffffffffffffff03821115611ab557611ab4611bc9565b5b828201905092915050565b6000611acb82611b8c565b9150611ad683611b8c565b9250817fffffffffffffffffffffffffffffffffffffffffffffffffffffffffffffffff0483118215151615611b0f57611b0e611bc9565b5b828202905092915050565b6000611b2582611b8c565b9150611b3083611b8c565b925082821015611b4357611b42611bc9565b5b828203905092915050565b6000611b5982611b6c565b9050919050565b60008115159050919050565b600073ffffffffffffffffffffffffffffffffffffffff82169050919050565b6000819050919050565b60005b83811015611bb4578082015181840152602081019050611b99565b83811115611bc3576000848401525b50505050565b7f4e487b7100000000000000000000000000000000000000000000000000000000600052601160045260246000fd5b6000601f19601f8301169050919050565b7f53656e6465722073686f756c64206265206f776e657200000000000000000000600082015250565b7f416d6f756e74206d757374206265206d6f7265207175616c206164647265737360008201527f2062616c616e6365000000000000000000000000000000000000000000000000602082015250565b7f416d6f756e74206d757374206265206d6f65207468616e207a65726f00000000600082015250565b7f4e6f207a65726f20616464726573730000000000000000000000000000000000600082015250565b7f416464726573732073686f756c64206e6f74206265207a65726f000000000000600082015250565b611d0581611b4e565b8114611d1057600080fd5b50565b611d1c81611b60565b8114611d2757600080fd5b50565b611d3381611b8c565b8114611d3e57600080fd5b5056fea2646970667358221220c80c20489b32823f97f90e522b242aab02817d3d6223c93c2d7edd4fb33697f064736f6c63430008040033",
  "linkReferences": {},
  "deployedLinkReferences": {}
}