{
  "_format": "hh-sol-artifact-1",
  "contractName": "UserData",
  "sourceName": "contracts/UserData.sol",
  "abi": [
    {
      "inputs": [],
      "stateMutability": "nonpayable",
      "type": "constructor"
    },
    {
      "inputs": [
        {
          "internalType": "address",
          "name": "userAddress",
          "type": "address"
        },
        {
          "internalType": "uint256",
          "name": "amount",
          "type": "uint256"
        }
      ],
      "name": "addAmount",
      "outputs": [],
      "stateMutability": "nonpayable",
      "type": "function"
    },
    {
      "inputs": [
        {
          "internalType": "address",
          "name": "userAddress",
          "type": "address"
        }
      ],
      "name": "exists",
      "outputs": [
        {
          "internalType": "bool",
          "name": "",
          "type": "bool"
        }
      ],
      "stateMutability": "view",
      "type": "function"
    },
    {
      "inputs": [
        {
          "internalType": "address",
          "name": "userAddress",
          "type": "address"
        }
      ],
      "name": "getAmount",
      "outputs": [
        {
          "internalType": "uint256",
          "name": "",
          "type": "uint256"
        }
      ],
      "stateMutability": "view",
      "type": "function"
    },
    {
      "inputs": [
        {
          "internalType": "uint256",
          "name": "i",
          "type": "uint256"
        }
      ],
      "name": "getAt",
      "outputs": [
        {
          "internalType": "address",
          "name": "",
          "type": "address"
        },
        {
          "internalType": "uint256",
          "name": "",
          "type": "uint256"
        }
      ],
      "stateMutability": "view",
      "type": "function"
    },
    {
      "inputs": [],
      "name": "getCount",
      "outputs": [
        {
          "internalType": "uint256",
          "name": "",
          "type": "uint256"
        }
      ],
      "stateMutability": "view",
      "type": "function"
    },
    {
      "inputs": [
        {
          "internalType": "address",
          "name": "userAddress",
          "type": "address"
        },
        {
          "internalType": "uint256",
          "name": "amount",
          "type": "uint256"
        }
      ],
      "name": "removeAmount",
      "outputs": [],
      "stateMutability": "nonpayable",
      "type": "function"
    },
    {
      "inputs": [
        {
          "internalType": "address",
          "name": "userAddress",
          "type": "address"
        }
      ],
      "name": "resetAmount",
      "outputs": [],
      "stateMutability": "nonpayable",
      "type": "function"
    },
    {
      "inputs": [
        {
          "internalType": "address",
          "name": "parentAddress",
          "type": "address"
        }
      ],
      "name": "setParentAddress",
      "outputs": [],
      "stateMutability": "nonpayable",
      "type": "function"
    }
  ],
  "bytecode": "0x608060405234801561001057600080fd5b50336000806101000a81548173ffffffffffffffffffffffffffffffffffffffff021916908373ffffffffffffffffffffffffffffffffffffffff160217905550610bed806100606000396000f3fe608060405234801561001057600080fd5b50600436106100885760003560e01c8063f1af92b61161005b578063f1af92b614610114578063f5a7976714610130578063f6a3d24e14610160578063fa5afe401461019057610088565b806325b2e9241461008d578063303eaeed146100a957806363de1f2c146100da578063a87d942c146100f6575b600080fd5b6100a760048036038101906100a2919061091a565b6101ac565b005b6100c360048036038101906100be9190610956565b610397565b6040516100d19291906109cf565b60405180910390f35b6100f460048036038101906100ef91906108f1565b610451565b005b6100fe61054c565b60405161010b9190610a33565b60405180910390f35b61012e6004803603810190610129919061091a565b610559565b005b61014a600480360381019061014591906108f1565b6107de565b6040516101579190610a33565b60405180910390f35b61017a600480360381019061017591906108f1565b61082a565b60405161018791906109f8565b60405180910390f35b6101aa60048036038101906101a591906108f1565b610883565b005b60008054906101000a900473ffffffffffffffffffffffffffffffffffffffff1673ffffffffffffffffffffffffffffffffffffffff163373ffffffffffffffffffffffffffffffffffffffff1614806102535750600160009054906101000a900473ffffffffffffffffffffffffffffffffffffffff1673ffffffffffffffffffffffffffffffffffffffff163373ffffffffffffffffffffffffffffffffffffffff16145b610292576040517f08c379a000000000000000000000000000000000000000000000000000000000815260040161028990610a13565b60405180910390fd5b600260008373ffffffffffffffffffffffffffffffffffffffff1673ffffffffffffffffffffffffffffffffffffffff16815260200190815260200160002060010160009054906101000a900460ff166102eb57600080fd5b80600260008473ffffffffffffffffffffffffffffffffffffffff1673ffffffffffffffffffffffffffffffffffffffff16815260200190815260200160002060000154101561033a57600080fd5b80600260008473ffffffffffffffffffffffffffffffffffffffff1673ffffffffffffffffffffffffffffffffffffffff168152602001908152602001600020600001600082825461038c9190610ab5565b925050819055505050565b6000806000600384815481106103d6577f4e487b7100000000000000000000000000000000000000000000000000000000600052603260045260246000fd5b9060005260206000200160009054906101000a900473ffffffffffffffffffffffffffffffffffffffff16905080600260008373ffffffffffffffffffffffffffffffffffffffff1673ffffffffffffffffffffffffffffffffffffffff168152602001908152602001600020600001549250925050915091565b60008054906101000a900473ffffffffffffffffffffffffffffffffffffffff1673ffffffffffffffffffffffffffffffffffffffff163373ffffffffffffffffffffffffffffffffffffffff1614806104f85750600160009054906101000a900473ffffffffffffffffffffffffffffffffffffffff1673ffffffffffffffffffffffffffffffffffffffff163373ffffffffffffffffffffffffffffffffffffffff16145b61050157600080fd5b6000600260008373ffffffffffffffffffffffffffffffffffffffff1673ffffffffffffffffffffffffffffffffffffffff1681526020019081526020016000206000018190555050565b6000600380549050905090565b60008054906101000a900473ffffffffffffffffffffffffffffffffffffffff1673ffffffffffffffffffffffffffffffffffffffff163373ffffffffffffffffffffffffffffffffffffffff1614806106005750600160009054906101000a900473ffffffffffffffffffffffffffffffffffffffff1673ffffffffffffffffffffffffffffffffffffffff163373ffffffffffffffffffffffffffffffffffffffff16145b61063f576040517f08c379a000000000000000000000000000000000000000000000000000000000815260040161063690610a13565b60405180910390fd5b600260008373ffffffffffffffffffffffffffffffffffffffff1673ffffffffffffffffffffffffffffffffffffffff16815260200190815260200160002060010160009054906101000a900460ff16156106f25780600260008473ffffffffffffffffffffffffffffffffffffffff1673ffffffffffffffffffffffffffffffffffffffff16815260200190815260200160002060000160008282546106e69190610a5f565b925050819055506107da565b604051806040016040528082815260200160011515815250600260008473ffffffffffffffffffffffffffffffffffffffff1673ffffffffffffffffffffffffffffffffffffffff1681526020019081526020016000206000820151816000015560208201518160010160006101000a81548160ff0219169083151502179055509050506003829080600181540180825580915050600190039060005260206000200160009091909190916101000a81548173ffffffffffffffffffffffffffffffffffffffff021916908373ffffffffffffffffffffffffffffffffffffffff1602179055505b5050565b6000600260008373ffffffffffffffffffffffffffffffffffffffff1673ffffffffffffffffffffffffffffffffffffffff168152602001908152602001600020600001549050919050565b6000600260008373ffffffffffffffffffffffffffffffffffffffff1673ffffffffffffffffffffffffffffffffffffffff16815260200190815260200160002060010160009054906101000a900460ff169050919050565b80600160006101000a81548173ffffffffffffffffffffffffffffffffffffffff021916908373ffffffffffffffffffffffffffffffffffffffff16021790555050565b6000813590506108d681610b89565b92915050565b6000813590506108eb81610ba0565b92915050565b60006020828403121561090357600080fd5b6000610911848285016108c7565b91505092915050565b6000806040838503121561092d57600080fd5b600061093b858286016108c7565b925050602061094c858286016108dc565b9150509250929050565b60006020828403121561096857600080fd5b6000610976848285016108dc565b91505092915050565b61098881610ae9565b82525050565b61099781610afb565b82525050565b60006109aa602083610a4e565b91506109b582610b60565b602082019050919050565b6109c981610b27565b82525050565b60006040820190506109e4600083018561097f565b6109f160208301846109c0565b9392505050565b6000602082019050610a0d600083018461098e565b92915050565b60006020820190508181036000830152610a2c8161099d565b9050919050565b6000602082019050610a4860008301846109c0565b92915050565b600082825260208201905092915050565b6000610a6a82610b27565b9150610a7583610b27565b9250827fffffffffffffffffffffffffffffffffffffffffffffffffffffffffffffffff03821115610aaa57610aa9610b31565b5b828201905092915050565b6000610ac082610b27565b9150610acb83610b27565b925082821015610ade57610add610b31565b5b828203905092915050565b6000610af482610b07565b9050919050565b60008115159050919050565b600073ffffffffffffffffffffffffffffffffffffffff82169050919050565b6000819050919050565b7f4e487b7100000000000000000000000000000000000000000000000000000000600052601160045260246000fd5b7f53656e6465722073686f756c6420626520706172656e74206f72206f776e6572600082015250565b610b9281610ae9565b8114610b9d57600080fd5b50565b610ba981610b27565b8114610bb457600080fd5b5056fea26469706673582212202435c1b75c9e3e3891b530fb2f2aa1ecbeb197df2963063d7d46b3b0fccc5a3e64736f6c63430008040033",
  "linkReferences": {},
  "deployedLinkReferences": {}
}